:020000040000FA
:0600000000308A00842894
:08000800F0000308F10083126F
:1000100003130C1083120313A00B19280B30831247
:100020000313A0002423A00B1228831203134530CE
:10003000A000242383120313DF308F00FF307108E8
:100040008300F00E700E0900483465346C346C3453
:100050006F34203450344934433421340034443430
:1000600061347434613420347234653463346534FB
:1000700069347634653464340034533465346C3414
:100080006534633474342034663475346E346334C8
:10009000743469346F346E3420343E343E343E342C
:1000A000203431343A34203456346F346C34743460
:1000B0006D34653474346534723420342A342A340F
:1000C0002A34203432343A34203454346834653499
:1000D00072346D346F346D34653474346534723415
:1000E0000034533465346C346534633474342034F0
:1000F000663475346E346334743469346F346E34FA
:0401000031342E3434
:04010400003400348F
:0801080090018F018E018B01B3
:1001100083168C010C1483128C01831203130A3092
:1001200090001014E4222722852254218721662181
:100130001A23852283160608013886000508103820
:10014000850083121A23003050233D30742335304C
:1001500083120313A0008C0183120313C0308B00A1
:10016000000083120313AF0183120313061CAF14A4
:10017000051E2F15AF1892212F19BF20B02800009F
:100180000B131A232F1105305023DF306523433022
:10019000652300305023872111141118CD288721A1
:1001A000831203139A30930038218721831203139B
:1001B000013093003821872100308312031393000C
:1001C000382187218316031311151119E528831689
:1001D000031311141118EA289A30831203139300A1
:1001E000382187218312031300309300382187219F
:1001F0008316031391149118FB289B308312031369
:100200009300382187213F2183120313130883129F
:100210000313061CAF14AF186E220E2183120313B2
:10022000A401A501A6002D30A61F2B306523A61B17
:1002300035213222280800382030031922292808C5
:100240000F39303E65232708F03900382030031974
:100250002D292708270E0F39303E652327080F392F
:10026000303E652300305023F728A609A60A08006F
:10027000000083160313111B3B298922080000008C
:1002800083160313141087218316031391159119F4
:10029000472983160313141C4B2983160313911645
:1002A0001116111A5129080083160313070818386C
:1002B00087008312031328309400831603139417C6
:1002C000831603130930930091010800831603136A
:1002D0001115111969298721111414186D29872105
:1002E000831203139A30930038218721831203135A
:1002F000013093003821872180308312031393004B
:100300003821831603131115111984290800831647
:100310000313141989298316031311081F39031DA8
:100320008D2908000000831203130B131A23831274
:100330000313AF100630502356306523003050238E
:10034000831203131F151F1DA329B3228400000865
:10035000AB00840A0008AC00840A0008AD0000006D
:100360002B08A4002C08A5002D08A6003222831219
:100370000313B501B6012708B10028080F39B000F2
:100380000430B2004430B30003103107B7007022CC
:10039000B60032080318013E3007B7007022B500DE
:1003A000351AED292A080F39303E65232E30652392
:1003B0002908290E0F39303E652329080F39303EB0
:1003C00065232808280E0F39303E65238312031356
:1003D000051E2F152F19BF20972983120313B5016E
:1003E000B6010310A80DA90DAA0DA80DA90DAA0DFF
:1003F000A80DA90DAA0DA80DA90DAA0D2908B100D7
:100400002A08B0000030B2000130B30003103107F9
:10041000B7007022B60030080318013E3207B7005B
:100420007022B5003508350E0F39303E65232E3069
:10043000652335080F39303E65233608360E0F39EF
:10044000303E652336080F39303E6523E62981307A
:10045000831203139F008030831603139F008312BF
:1004600003130800A701A801A901AA011830A000E0
:100470006522A00B3C2A08002708033EAB00AB19FD
:10048000A7002708303EAB00AB1BA7002808033E9F
:10049000AB00AB19A8002808303EAB00AB1BA8008E
:1004A0002908033EAB00AB19A9002908303EAB0078
:1004B000AB1BA9002A08033EAB00AB19AA002A080F
:1004C000303EAB00AB1BAA00382A0310A60DA50DC9
:1004D000A40DA70DA80DA90DAA0D08006621922153
:1004E00034100318341406308318B707B707831C79
:1004F000B7026030B707031C3418822AB702031012
:0A050000370808000314370808004C
:06050A0089228F0B852AF7
:100510000800000083120313F230B8009022080094
:100520000000922A932AB80B902A08008312031322
:10053000B900390E0F39303E83120313BC00393C29
:10054000031CAF223C08BA0039080F39303EBC000A
:10055000393C031CAF223C08BB003A3008003C0881
:10056000073EBC000800831603131E088312031302
:10057000C500831203131E0883120313C4008312E1
:100580000313BD01BE01BF011330C200C100C00191
:100590000A30C300C40CC50C0318D6220310C20DC8
:1005A000C10DC00DC30BCA2A3D3008003F084207E9
:1005B000BF003E080318013E4107BE003D08031876
:1005C000013E4007BD000800831603138801831213
:1005D00003138817852283308800A3238922892268
:1005E0008922A3238922A323892282308800A3237E
:1005F000892282308800A323892284308800A323A3
:10060000892280308800A323892281308800A32397
:10061000892280308800A323892286308800A32382
:10062000892280308800A32389228C308800A3236C
:1006300089220800892280308800A3238922813002
:100640008800A32389220800892281308800A323FF
:10065000892288308800A323892208008316031387
:100660000F30880083120313081288160817881D9C
:100670003C2B0813A323362B0813A3238316031341
:1006800088018312031308002E23892289228030D7
:100690008800A32382308800A323892289220800AE
:1006A00083120313C8008922480E0F398838831239
:1006B00003138800A3238312031348080F398038DB
:1006C000831203138800A3230800C6002E23460EBE
:1006D0000F3990388800A3232E2346080F3990380D
:1006E0008800A3232E230800C7007C2300380319A9
:1006F00008006523C70A752B470882008922080075
:100700001A2348306523653065236C3065236C30CF
:1007100065236F30652320306523503065234930D1
:100720006523433065232030652320306523203046
:100730006523203065232030652320306523203059
:0E074000652321306523081700000813080008
:02400E00313D42
:00000001FF
